:100000000C9434000C9451000C9451000C94510049
:100010000C9451000C9451000C9451000C9451001C
:100020000C9451000C9451000C9451000C9451000C
:100030000C9451000C9451000C9451000C945100FC
:100040000C9451000C9451000C9451000C945100EC
:100050000C9451000C9451000C9451000C945100DC
:100060000C9451000C94510011241FBECFEFD8E026
:10007000DEBFCDBF11E0A0E0B1E0EAEAFFE002C0E0
:1000800005900D92AA33B107D9F721E0AAE3B1E0B8
:1000900001C01D92A534B207E1F70E9485040C94BB
:1000A000D3070C94000061E080913A010E94F603AE
:1000B000089560E080913A010E94F603089585E377
:1000C0008A95F1F700000E94120385E38A95F1F703
:1000D000000087E20E941E0385E38A95F1F7000085
:1000E00080E70E941E0385E38A95F1F700000E94D5
:1000F00018030895FF920F931F93CF93DF93C82F98
:10010000062FF42E152F0E9412038C2F0E941E031F
:10011000002379F0CF2DD12F015010E00F5F1F4F3A
:100120000C0F1D1F80E00E941E038993C017D1078A
:10013000C9F70E941803CDB7DEB7E5E00C94E204DE
:100140000E94120381EE0E941E030E94180308956C
:10015000FF920F931F93CF93DF93C82F062FF42E98
:10016000152F0E9412038C2F80620E941E03002311
:1001700071F0CF2DD12F015010E00F5F1F4F0C0FEA
:100180001D1F89910E941E03C017D107D1F70E943D
:100190001803CDB7DEB7E5E00C94E204A1E0B0E0CF
:1001A000E4EDF0E00C94C904AE014F5F5F4F60E0F6
:1001B00081E00E947A0089818E7F82608983AE010E
:1001C0004F5F5F4F61E080E00E94A80087E592E00A
:1001D0000197F1F700C000002196E2E00C94E504DD
:1001E000A1E0B0E0E6EFF0E00C94C904AE014F5F8F
:1001F0005F4F61E080E00E947A008981836089839B
:10020000AE014F5F5F4F61E080E00E94A8008AE688
:100210008A95F1F700C02196E2E00C94E504A1E094
:10022000B0E0E5E1F1E00C94C904AE014F5F5F4F2F
:1002300061E080E00E947A0085E38A95F1F7000092
:100240000E94CE000E94120381EE0E941E030E94B3
:1002500018030E94F0000E94120382EE0E941E0307
:100260000E941803AE014F5F5F4F61E080E00E9483
:10027000A8002196E2E00C94E504CF93C82F0E94D9
:1002800012038C2F0E941E0380E00E941E03C82FC1
:100290000E9418038C2FCF910895A1E0B0E0E3E510
:1002A000F1E00C94C90480E00E943D018D7F8983B8
:1002B000AE014F5F5F4F61E080E00E94A800219691
:1002C000E2E00C94E504A1E0B0E0E9E6F1E00C9492
:1002D000C90480E00E943D0182608983AE014F5FC6
:1002E0005F4F61E080E00E94A8002196E2E00C945C
:1002F000E504A5E0B0E0EFE7F1E00C94C8042FEFCF
:1003000081EE94E0215080409040E1F700C0000071
:100310002DE04BE06CE08AE00E94E40288E08093EC
:100320003A0161E00E94720360E080913A010E940C
:10033000F6030E944D012FEF85EA9EE02150804098
:100340009040E1F700C000000E9463012FEF8BE7AF
:1003500092E9215080409040E1F700C000000E94E7
:100360000F011982AE014F5F5F4F61E08CE10E9487
:10037000A80011E01983AE014F5F5F4F61E082E09A
:100380000E94A8001983AE014F5F5F4F61E082E0D9
:100390000E94A8001982AE014F5F5F4F61E08DE1BE
:1003A0000E94A8001982AE014F5F5F4F61E081E0BB
:1003B0000E94A8001983AE014F5F5F4F61E083E0A8
:1003C0000E94A8008EE68983AE014F5F5F4F61E017
:1003D00085E00E94A8001982AE014F5F5F4F61E087
:1003E00084E00E94A80087E08983AE014F5F5F4FE1
:1003F00061E086E00E94A80019831A831B83AE0186
:100400004F5F5F4F63E08AE00E94A800AE014F5F3C
:100410005F4F63E080E10E94A80080E28983AE0123
:100420004F5F5F4F61E081E10E94A8008EE0898309
:10043000AE014F5F5F4F61E087E00E94A80087E751
:100440008983AE014F5F5F4F61E080E00E94A800AA
:1004500081E18983AE014F5F5F4F61E087E10E94D8
:10046000A8000E940F012596E3E00C94E404A1E0AB
:10047000B0E0EDE3F2E00C94C5047C010E94CE00F4
:100480000E94120381EE0E941E030E94180387013E
:100490009701215E3F4FF7018FEF9191890FE2178E
:1004A000F307D9F7F701878F0E94120380EA0E94B1
:1004B0001E03F0E2EF0EF11CF80181918F010E9402
:1004C0001E030E151F05C1F70E94180361E08091FD
:1004D0003A010E94F603FAE6FA95F1F700C060E0EF
:1004E00080913A010E94F6038AE68A95F1F700C0EE
:1004F00087E00E943D0185FFFBCF87E00E943D0120
:1005000080628983AE014F5F5F4F61E087E00E94A8
:10051000A8000E94F0002196E6E00C94E104A1E01E
:10052000B0E0E5E9F2E00C94BF044C0180966C0168
:10053000F4017F965F0161E080913A010E94F60329
:1005400087E00E943D0186FFFBCF60E080913A0189
:100550000E94F6030E94120381E60E941E037401AA
:1005600084018FEF0E941E03F80181938F01EC1527
:10057000FD05B9F70E9418030E94120382EE0E9443
:100580001E030E94180387E00E943D018064898356
:10059000AE014F5F5F4F61E087E00E94A80061E01D
:1005A00080913A010E94F6038FEFF70191917F014C
:1005B000890FEA15FB05C9F7F401978D8913BBCFA5
:1005C0002196ECE00C94DB0480933C0160933B01AA
:1005D00040933E0120933D0161E00E94720360E080
:1005E00080913B010E94720361E080913E010E9474
:1005F000720361E080913D010E94720360E080918E
:100600003D010E94F60361E080913C010E94F603E7
:100610002FEF83ED90E3215080409040E1F700C040
:100620000000089560E080913C010E94F603089567
:1006300061E080913C010E94F6030895EF92FF92E1
:100640000F931F93CF93E82EF12C07E010E0C0E04A
:10065000B701002E02C0759567950A94E2F76170A4
:1006600080913E010E94F60361E080913D010E946D
:10067000F60387EC90E00197F1F700C0000080914D
:100680003B0190E00E94CF03CC0FC82B60E080912B
:100690003D010E94F60387EC90E00197F1F700C05E
:1006A000000001501109A0F68C2FCF911F910F91DE
:1006B000FF90EF90089588307CF080313CF092E01C
:1006C000FB0190838051FA0180830895FB01108221
:1006D0008850FA018083089591E0FB019083FA012C
:1006E00080830895883084F460FD31C04AB121E0F0
:1006F00030E0B90102C0660F771F8A95E2F7CB019F
:10070000809584238AB90895803184F0805160FFF8
:1007100038C047B121E030E0B90102C0660F771F51
:100720008A95E2F7CB01842B87B90895885060FD44
:100730001BC044B121E030E0B90102C0660F771F51
:100740008A95E2F7CB018095842384B908954AB154
:1007500021E030E0B90102C0660F771F8A95E2F709
:10076000CB01842B8AB9089544B121E030E0B9016E
:1007700002C0660F771F8A95E2F7CB01842B84B9FC
:10078000089547B121E030E0B90102C0660F771F3C
:100790008A95E2F7CB018095842387B90895883044
:1007A0005CF429B130E0A90102C0559547958A95BE
:1007B000E2F7CA0181700895803164F026B130E01B
:1007C0008051A90102C0559547958A95E2F7CA0163
:1007D0008170089523B130E08850A90102C0559579
:1007E00047958A95E2F7CA0181700895883084F4AC
:1007F00060FD3FC04BB121E030E0B90102C0660F9F
:10080000771F8A95E2F7CB01809584238BB90895F1
:1008100080318CF0805160FD39C048B121E030E07A
:10082000B90102C0660F771F8A95E2F7CB01809568
:10083000842388B90895885060FD0EC045B121E039
:1008400030E0B90102C0660F771F8A95E2F7CB014D
:100850008095842385B9089545B121E030E0B90140
:1008600002C0660F771F8A95E2F7CB01842B85B90A
:1008700008954BB121E030E0B90102C0660F771F47
:100880008A95E2F7CB01842B8BB9089548B121E01A
:1008900030E0B90102C0660F771F8A95E2F7CB01FD
:1008A000842B88B90895CF93C82F8A3041F0809166
:1008B000C00085FFFCCFC093C600CF9108958DE0A6
:1008C0000E945304F4CF8091C00087FFFCCF809139
:1008D000C60008951092C50087E68093C400EFE338
:1008E000F1E08EE091E09383828380E091E0918358
:1008F0008083E0ECF0E080818D7F808386E08093D0
:10090000C20088E18093C1000895A4E1B0E0EBE863
:10091000F4E00C94C3040E946A040E9479018CE103
:1009200091E00E94F00400E010E0CE0101966C011D
:1009300083E3E82E81E0F82E1F930F93FF92EF924E
:10094000DF92CF920E942005C6010E9437020F5FFE
:100950001F4F9FEF21EE84E0915020408040E1F74F
:1009600000C000000F900F900F900F900F900F900D
:10097000E3CF2F923F924F925F926F927F928F922E
:100980009F92AF92BF92CF92DF92EF92FF920F931E
:100990001F93CF93DF93CDB7DEB7CA1BDB0B0FB628
:1009A000F894DEBF0FBECDBF09942A8839884888E5
:1009B0005F846E847D848C849B84AA84B984C8847B
:1009C000DF80EE80FD800C811B81AA81B981CE0F72
:1009D000D11D0FB6F894DEBF0FBECDBFED01089557
:1009E0000F931F93CF93DF93E0914101F091420168
:1009F000238121FF1BC08C01D0E0C0E0F801819170
:100A00008F016091410170914201DB011896ED91D7
:100A1000FC911997882331F00995892B79F3DFEF41
:100A2000CFEFECCF8AE00995892B19F08FEF9FEF7C
:100A300002C08D2F9C2FDF91CF911F910F910895B0
:100A4000AEE0B0E0E6E2F5E00C94C7040D891E8943
:100A500086E08C831A8309838FEF9FE79E838D83C3
:100A6000AE01475E5F4F6F89788DCE0101960E947F
:100A70004205EF81F885E00FF11F10822E96E4E029
:100A80000C94E304ABE0B0E0E8E4F5E00C94B904C6
:100A90006C017B018A01FC0117821682838181FF30
:100AA000CCC1CE0101963C01F6019381F70193FD83
:100AB000859193FF81917F01882309F4BAC1853222
:100AC00039F493FD859193FF81917F01853229F45B
:100AD000B60190E00E943907E7CF912C212C312CF0
:100AE000FFE1F315D8F08B3279F038F4803279F0E9
:100AF0008332A1F4232D20611DC08D3261F080333B
:100B000069F4232D216016C0832D8260382EE32DD9
:100B1000E4603E2E2AC0F32DF8601DC037FC2DC0C6
:100B200020ED280F2A3040F08E32B9F436FC81C116
:100B3000232D2064322E19C036FE06C08AE0989E0E
:100B4000200D1124922E11C0EAE02E9E200D1124BA
:100B5000222EF32DF0623F2E08C08C3621F4832D17
:100B60008068382E02C0883641F4F70193FD8591E4
:100B700093FF81917F018111B3CF982F9F7D955471
:100B8000933028F40C5F1F4F9FE399830DC0833689
:100B900031F0833771F0833509F059C021C0F80175
:100BA000808189830E5F1F4F88248394912C530189
:100BB00013C02801F2E04F0E511CF801A080B18053
:100BC00036FE03C0692D70E002C06FEF7FEFC501F4
:100BD0000E942E074C018201F32DFF773F2E16C095
:100BE000280122E0420E511CF801A080B18036FE9F
:100BF00003C0692D70E002C06FEF7FEFC5010E9456
:100C000023074C01F32DF0683F2E820133FC1BC0FB
:100C1000822D90E088169906B0F4B60180E290E04B
:100C20000E9439072A94F4CFF50137FC859137FEED
:100C300081915F01B60190E00E94390721102A944A
:100C400021E0821A91088114910471F7E8C084367A
:100C500011F0893641F5F80137FE07C060817181D6
:100C6000828193810C5F1F4F08C060817181072EC4
:100C7000000C880B990B0E5F1F4FF32DFF763F2E54
:100C800097FF09C090958095709561957F4F8F4F24
:100C90009F4FF0683F2E2AE030E0A3010E947507C5
:100CA000882E861845C0853731F4232D2F7EB22E2D
:100CB0002AE030E025C0932D997FB92E8F36C1F000
:100CC00018F4883579F0B5C0803719F0883721F0ED
:100CD000B0C0E92FE061BE2EB4FE0DC0FB2DF46064
:100CE000BF2E09C034FE0AC0292F2660B22E06C0CE
:100CF00028E030E005C020E130E002C020E132E031
:100D0000F801B7FE07C060817181828193810C5F19
:100D10001F4F06C06081718180E090E00E5F1F4F21
:100D2000A3010E947507882E8618FB2DFF773F2EA2
:100D300036FE0DC0232D2E7FA22E891458F434FECA
:100D40000BC032FC09C0832D8E7EA82E05C0B82CA6
:100D5000A32C03C0B82C01C0B92CA4FE0FC0FE0107
:100D6000E80DF11D8081803321F49A2D997EA92E02
:100D700009C0A2FE06C0B394B39404C08A2D86783D
:100D800009F0B394A3FC11C0A0FE06C0B21488F40D
:100D9000280C922C9B180EC0B21460F4B60180E2AD
:100DA00090E00E943907B394F7CFB21418F42B18CF
:100DB00002C0982C212CA4FE10C0B60180E390E064
:100DC0000E943907A2FE17C0A1FC03C088E790E08B
:100DD00002C088E590E0B6010CC08A2D867859F0F3
:100DE000A1FE02C08BE201C080E2A7FC8DE2B60149
:100DF00090E00E943907891438F4B60180E390E04E
:100E00000E9439079A94F7CF8A94F301E80DF11DF7
:100E10008081B60190E00E9439078110F5CF222031
:100E200009F442CEB60180E290E00E9439072A948C
:100E3000F6CFF6018681978102C08FEF9FEF2B9648
:100E4000E2E10C94D504FC01059061507040011062
:100E5000D8F7809590958E0F9F1F0895FC016150E3
:100E6000704001900110D8F7809590958E0F9F1FCC
:100E700008950F931F93CF93DF93FB01238121FDEF
:100E800003C08FEF9FEF2CC022FF16C04681578111
:100E9000248135814217530744F4A081B1819D011B
:100EA0002F5F3F4F318320838C93268137812F5FC3
:100EB0003F4F3783268314C08B01EC01FB01008474
:100EC000F185E02D0995892BE1F6D80116968D91D3
:100ED0009C911797019617969C938E931697CE0127
:100EE000DF91CF911F910F910895FA01AA27283021
:100EF00051F1203181F1E8946F936E7F6E5F7F4FE7
:100F00008F4F9F4FAF4FB1E03ED0B4E03CD0670F62
:100F1000781F891F9A1FA11D680F791F8A1F911DB5
:100F2000A11D6A0F711D811D911DA11D20D009F405
:100F300068943F912AE0269F11243019305D319347
:100F4000DEF6CF010895462F4770405D4193B3E030
:100F50000FD0C9F7F6CF462F4F70405D4A3318F0D7
:100F6000495D31FD4052419302D0A9F7EACFB4E088
:100F7000A6959795879577956795BA95C9F7009740
:100F80006105710508959B01AC010A2E06945795E1
:100F9000479537952795BA95C9F7620F731F841F38
:0A0FA000951FA01D0895F894FFCFDF
:100FAA0000000001000000000000630400000000CF
:100FBA00000200000000530400000000526F646148
:100FCA006E646F207472616E736D6973736F722EC3
:0A0FDA002E2E006F69202564000030
:00000001FF
